{
  "_format": "hh-sol-artifact-1",
  "contractName": "L2Contract",
  "sourceName": "contracts/L2Contract.sol",
  "abi": [
    {
      "inputs": [
        {
          "internalType": "address",
          "name": "_l2Messenger",
          "type": "address"
        }
      ],
      "stateMutability": "nonpayable",
      "type": "constructor"
    },
    {
      "inputs": [
        {
          "internalType": "address",
          "name": "_to",
          "type": "address"
        },
        {
          "internalType": "string",
          "name": "_greeting",
          "type": "string"
        }
      ],
      "name": "sendMessageToL1",
      "outputs": [],
      "stateMutability": "payable",
      "type": "function"
    }
  ],
  "bytecode": "0x608060405234801561001057600080fd5b506040516106223803806106228339818101604052810190610032919061008d565b806000806101000a81548173ffffffffffffffffffffffffffffffffffffffff021916908373ffffffffffffffffffffffffffffffffffffffff160217905550506100ff565b600081519050610087816100e8565b92915050565b60006020828403121561009f57600080fd5b60006100ad84828501610078565b91505092915050565b60006100c1826100c8565b9050919050565b600073ffffffffffffffffffffffffffffffffffffffff82169050919050565b6100f1816100b6565b81146100fc57600080fd5b50565b6105148061010e6000396000f3fe60806040526004361061001e5760003560e01c8063372ca0d814610023575b600080fd5b61003d600480360381019061003891906101d7565b61003f565b005b6000620186a09050600063a413686260e01b836040516024016100629190610316565b604051602081830303815290604052907bffffffffffffffffffffffffffffffffffffffffffffffffffffffff19166020820180517bffffffffffffffffffffffffffffffffffffffffffffffffffffffff8381831617835250505050905060008054906101000a900473ffffffffffffffffffffffffffffffffffffffff1673ffffffffffffffffffffffffffffffffffffffff1663b2267a7b3486600085876040518663ffffffff1660e01b815260040161012294939291906102ca565b6000604051808303818588803b15801561013b57600080fd5b505af115801561014f573d6000803e3d6000fd5b505050505050505050565b600061016d6101688461035d565b610338565b90508281526020810184848401111561018557600080fd5b610190848285610414565b509392505050565b6000813590506101a7816104c7565b92915050565b600082601f8301126101be57600080fd5b81356101ce84826020860161015a565b91505092915050565b600080604083850312156101ea57600080fd5b60006101f885828601610198565b925050602083013567ffffffffffffffff81111561021557600080fd5b610221858286016101ad565b9150509250929050565b610234816103c6565b82525050565b60006102458261038e565b61024f81856103a4565b935061025f818560208601610423565b610268816104b6565b840191505092915050565b61027c81610402565b82525050565b600061028d82610399565b61029781856103b5565b93506102a7818560208601610423565b6102b0816104b6565b840191505092915050565b6102c4816103f8565b82525050565b60006080820190506102df600083018761022b565b6102ec6020830186610273565b81810360408301526102fe818561023a565b905061030d60608301846102bb565b95945050505050565b600060208201905081810360008301526103308184610282565b905092915050565b6000610342610353565b905061034e8282610456565b919050565b6000604051905090565b600067ffffffffffffffff82111561037857610377610487565b5b610381826104b6565b9050602081019050919050565b600081519050919050565b600081519050919050565b600082825260208201905092915050565b600082825260208201905092915050565b60006103d1826103d8565b9050919050565b600073ffffffffffffffffffffffffffffffffffffffff82169050919050565b6000819050919050565b600061040d826103f8565b9050919050565b82818337600083830152505050565b60005b83811015610441578082015181840152602081019050610426565b83811115610450576000848401525b50505050565b61045f826104b6565b810181811067ffffffffffffffff8211171561047e5761047d610487565b5b80604052505050565b7f4e487b7100000000000000000000000000000000000000000000000000000000600052604160045260246000fd5b6000601f19601f8301169050919050565b6104d0816103c6565b81146104db57600080fd5b5056fea2646970667358221220e76ea56796407d5caf59f7a16304e8c8cf070ecc9059296130b089b46610c90964736f6c63430008040033",
  "linkReferences": {},
  "deployedLinkReferences": {}
}