{
  "_format": "hh-sol-artifact-1",
  "contractName": "L1Contract",
  "sourceName": "contracts/L1Contract.sol",
  "abi": [
    {
      "inputs": [
        {
          "internalType": "address",
          "name": "_l2Contract",
          "type": "address"
        },
        {
          "internalType": "address",
          "name": "_l1Messenger",
          "type": "address"
        }
      ],
      "stateMutability": "nonpayable",
      "type": "constructor"
    },
    {
      "inputs": [],
      "name": "greet",
      "outputs": [
        {
          "internalType": "string",
          "name": "",
          "type": "string"
        }
      ],
      "stateMutability": "view",
      "type": "function"
    },
    {
      "inputs": [
        {
          "internalType": "string",
          "name": "_greeting",
          "type": "string"
        }
      ],
      "name": "setGreeting",
      "outputs": [],
      "stateMutability": "nonpayable",
      "type": "function"
    }
  ],
  "bytecode": "0x608060405234801561001057600080fd5b506040516107c23803806107c2833981810160405281019061003291906100d0565b81600160006101000a81548173ffffffffffffffffffffffffffffffffffffffff021916908373ffffffffffffffffffffffffffffffffffffffff16021790555080600260006101000a81548173ffffffffffffffffffffffffffffffffffffffff021916908373ffffffffffffffffffffffffffffffffffffffff1602179055505050610155565b6000815190506100ca8161013e565b92915050565b600080604083850312156100e357600080fd5b60006100f1858286016100bb565b9250506020610102858286016100bb565b9150509250929050565b60006101178261011e565b9050919050565b600073ffffffffffffffffffffffffffffffffffffffff82169050919050565b6101478161010c565b811461015257600080fd5b50565b61065e806101646000396000f3fe608060405234801561001057600080fd5b50600436106100365760003560e01c8063a41368621461003b578063cfae321714610057575b600080fd5b610055600480360381019061005091906103bd565b610075565b005b61005f6101e2565b60405161006c9190610437565b60405180910390f35b600260009054906101000a900473ffffffffffffffffffffffffffffffffffffffff1673ffffffffffffffffffffffffffffffffffffffff163373ffffffffffffffffffffffffffffffffffffffff16146100cf57600080fd5b600260009054906101000a900473ffffffffffffffffffffffffffffffffffffffff1673ffffffffffffffffffffffffffffffffffffffff16636e296e456040518163ffffffff1660e01b815260040160206040518083038186803b15801561013757600080fd5b505afa15801561014b573d6000803e3d6000fd5b505050506040513d601f19601f8201168201806040525081019061016f9190610394565b73ffffffffffffffffffffffffffffffffffffffff16600160009054906101000a900473ffffffffffffffffffffffffffffffffffffffff1673ffffffffffffffffffffffffffffffffffffffff16146101c857600080fd5b80600090805190602001906101de929190610274565b5050565b6060600080546101f19061053f565b80601f016020809104026020016040519081016040528092919081815260200182805461021d9061053f565b801561026a5780601f1061023f5761010080835404028352916020019161026a565b820191906000526020600020905b81548152906001019060200180831161024d57829003601f168201915b5050505050905090565b8280546102809061053f565b90600052602060002090601f0160209004810192826102a257600085556102e9565b82601f106102bb57805160ff19168380011785556102e9565b828001600101855582156102e9579182015b828111156102e85782518255916020019190600101906102cd565b5b5090506102f691906102fa565b5090565b5b808211156103135760008160009055506001016102fb565b5090565b600061032a6103258461047e565b610459565b90508281526020810184848401111561034257600080fd5b61034d8482856104fd565b509392505050565b60008151905061036481610611565b92915050565b600082601f83011261037b57600080fd5b813561038b848260208601610317565b91505092915050565b6000602082840312156103a657600080fd5b60006103b484828501610355565b91505092915050565b6000602082840312156103cf57600080fd5b600082013567ffffffffffffffff8111156103e957600080fd5b6103f58482850161036a565b91505092915050565b6000610409826104af565b61041381856104ba565b935061042381856020860161050c565b61042c81610600565b840191505092915050565b6000602082019050818103600083015261045181846103fe565b905092915050565b6000610463610474565b905061046f8282610571565b919050565b6000604051905090565b600067ffffffffffffffff821115610499576104986105d1565b5b6104a282610600565b9050602081019050919050565b600081519050919050565b600082825260208201905092915050565b60006104d6826104dd565b9050919050565b600073ffffffffffffffffffffffffffffffffffffffff82169050919050565b82818337600083830152505050565b60005b8381101561052a57808201518184015260208101905061050f565b83811115610539576000848401525b50505050565b6000600282049050600182168061055757607f821691505b6020821081141561056b5761056a6105a2565b5b50919050565b61057a82610600565b810181811067ffffffffffffffff82111715610599576105986105d1565b5b80604052505050565b7f4e487b7100000000000000000000000000000000000000000000000000000000600052602260045260246000fd5b7f4e487b7100000000000000000000000000000000000000000000000000000000600052604160045260246000fd5b6000601f19601f8301169050919050565b61061a816104cb565b811461062557600080fd5b5056fea2646970667358221220bfa2dd4fb3064b30137e916e5636ee51a70c62052ca9028e7586bc44a2e36d9f64736f6c63430008040033",
  "linkReferences": {},
  "deployedLinkReferences": {}
}